:1000000003308A00402B00000A108A100A11820770
:1000100028340C34013406348C2273386539613746
:10002000E437A0296937613600008A20F032723A3D
:100030006510E237F4306F172E17000120062026D6
:10004000E136F030E430A018000120052026E1362A
:10005000F030E4302019000120062026E136F0308F
:10006000E430A018000120062026E136F030E4300C
:10007000201900018C216F323A10251834265800BF
:100080000A10201020102518342658003030840023
:100090008313000803195A280130F800F701F70B01
:1000A0004F28F80B4E284A30F700F70B55285828F0
:1000B000800B4C2808000830F80000008711A011C0
:1000C00020088316870000008312BD0D0712031C51
:1000D0006F282016200883168700732883122012A9
:1000E00020088316870000008312A01520088316BD
:1000F00087008312871D7A28F80B5D28000087117E
:10010000A011200883168700000083122016200803
:1001100083168700000000008312A01520088316B4
:1001200087008312871D9228F8010000071A7814AF
:100130008711A0112008831687008312071220124E
:10014000200883168700831208003B08003A031931
:10015000AD28013A0319CD28EE283A0EF700F03009
:10016000F70577082504BC00BD005B2000003A0EAF
:10017000F700F030F705770804382504BC00BD000F
:100180005B20C2283A0EF700F030F7057708FB39FC
:100190002504BC00BD005B20EE283A0EF700F030CD
:1001A000F705770801382504BC00BD005B2000007E
:1001B0003A0EF700F030F7057708013804382504C7
:1001C000BC00BD005B20E4283A0EF700F030F705D4
:1001D000770801382504BC00BD005B20080020160C
:1001E00020088316870000008312A01520088316BC
:1001F0008700000083120712201220088316870050
:10020000000083128711A011200883168700831233
:100210002108BD005B20370EB9000F30B905390841
:10022000BA003808BB00A52037080F39B900BA005A
:100230003808BB00A5202012200883168700000084
:100240008312A0152008831687008312871D262994
:1002500000002A29000020162008831687000000CD
:10026000831208000130B700B801EF200230B0005F
:1002700046200130A40008002A08A1002C08A20092
:100280002B08A3000B138B138B1B43293230B000B8
:100290004620201620088316870000008312A01530
:1002A00020088316870000008312071220122008FE
:1002B00083168700000083128711A011200883167F
:1002C000870083122108BD005B20BA01BB01A52075
:1002D0000F30B00046200130AD002D08033C031C58
:1002E0007A290330BA00BB01A5200530B0004620B2
:1002F000AD0A6D290230BA00BB01A5200530B0005F
:100300004620201220088316870000008312A015C3
:100310002008831687008312871D8C2900009029EE
:100320000000201620088316870000008312AD010C
:100330002D08033C031CA7292D080420AE00B7009C
:10034000B801EF200530B0004620AD0A98293221CF
:10035000C0308B048A110A12582BAA080319B3293A
:100360000830A500B429A5018A110A125B2B2F08B9
:100370000C3A0319C229063A0319C429023A03198F
:10038000062A0B2A3221102AA40A24082202031862
:10039000CB290130A4000130B0002408B10031089D
:1003A00022020318D6292208B200D8293108B20047
:1003B0003208013A0319E629033A0319E829013AF8
:1003C0000319EB29073A0319EE29F129B401F2299F
:1003D0004030B400F2291430B400F2295430B40093
:1003E000F229B401300823020318F9292308B300C5
:1003F000FB293008B300013033023407B50035085B
:100400008038B600B700B801EF20102A1030B700CE
:10041000B801EF20102A2F08B7000130B800EF20F4
:1004200008000B08AA008B13831603178C170C14F3
:100430000000000083120C087F390319582A0313A7
:10044000AB0003170D080313AC0003170F080313C9
:10045000AD002B08AF00B7212C0803178D00031344
:100460002D0803178F0083168C170C140000000052
:1004700083120C0D0E0D7F390319582A0313AB009C
:1004800003170D080313AC0003170F080313AD0087
:100490002B08AF00B7212C0803178D0003132D087C
:1004A00003178F008D0A03198F0A0313142A0317E9
:1004B0000313AA1B8B170800A701A601A901A80115
:1004C0008316061483120618602A0430B0004620F2
:1004D000AA012A081F3C031CC82AAC01AB018316E1
:1004E000061483120618852AAC08031D852A2B08DA
:1004F000633C031C852AAB0A0319AC0A2030F700C1
:10050000F70B802A832A00006F2AAC01AB01C730A9
:10051000F700F70B892A8C2A831606148312061813
:10052000B02A2A080F3C031CA22A0130F7002A082F
:10053000F80003199F2A0310F70DF80B9B2A770880
:10054000A604B02A10302A02F8000130F700F8089B
:100550000319AE2A0310F70DF80BAA2A7708A8048E
:10056000831606148312061CC62AAC08031DC62A6D
:100570002B08633C031CC62AAB0A0319AC0A2030C3
:10058000F700F70BC12AC42A0000B02AAA0A692A78
:100590008A110A12772B0B08AB008B1383160317F3
:1005A0008C170C14000000000318FD2A83120C089D
:1005B0007F390313AC0003170D080313AD000317B5
:1005C0000F080313AE002C08AF00B7212D08031746
:1005D0008D0003132E0803178F0083168C170C143D
:1005E0000000000083120313AA0BF72AFA2A8316CD
:1005F0000317FD2A1C2B8316031783120C0D0E0DF7
:100600007F390313AC0003170D080313AD00031764
:100610000F080313AE002C08AF00B7212D080317F5
:100620008D0003132E0803178F008D0A03198F0AFC
:1006300003100313AA0BCE2AAB1B8B170800AB1BAE
:10064000312B0F30F7002A0EF7050A307702031816
:100650002C2B3030F7072E2B2B08F7077708AF002D
:10066000B7210F30AA050A302A020318392B30307F
:100670003B2BAB132B08AA072A08AF00B7210800B1
:10068000FF30A0000130A4000830A50083161F141D
:100690009F141F159F1107309C0083131F30830583
:1006A0004E308312AA001030AB000230AC003C295F
:1006B0000130AA00AD29013083168600FC30880085
:1006C0008801831288010C3003178D0000308F00E1
:1006D00003131122153003178D0000308F00031310
:1006E00011228316061483120618202C5C2A260871
:1006F000F03C031D9E2BA708031D9E2B2808FB3CE6
:10070000031D9E2BA908031D9E2B83160810013084
:1007100083128806831688100230831288061E30E2
:1007200003178D0000308F000313112225300317AB
:100730008D0000308F0003131122182C2608FE3C78
:10074000031DAC2BA708031DAC2B2808743C031D0C
:10075000AC2BA9080319BA2B2608F03C031DC72BA4
:10076000A708031DC72B2808F73C031DC72BA908A2
:10077000031DC72B831608100130831288062C3006
:1007800003178D0000308F0003131122182C260848
:10079000FE3C031DD52BA708031DD52B2808723C52
:1007A000031DD52BA9080319E32B2608F03C031DD4
:1007B000F02BA708031DF02B2808F53C031DF02B98
:1007C000A908031DF02B83168810023083128806B7
:1007D000333003178D0000308F0003131122182CC3
:1007E0003A3003178D0000308F00031006300313DA
:1007F000AA00CB222708AA003730AB001F23260807
:10080000AA003730AB001F23403003178D000030A3
:100810008F00031006300313AA00CB222908AA0078
:100820003730AB001F232808AA003730AB001F2346
:10083000831606148312061C182CC830B0004620FC
:04084000712B6300B5
:02400E00313F40
:00000001FF
;PIC16F877A
;CRC=30EF  CREATED="10-jun-25 11:26"
